:100000000C94400C0C94680C0C94680C0C94680CC8
:100010000C94680C0C94680C0C94680C0C94680C90
:100020000C94680C0C94680C0C94BF160C94C517B7
:100030000C94680C0C94680C0C94680C0C94680C70
:100040000C94680C0C94680C0C94680C0C94680C60
:100050000C94680C0C94680C0C94680C0C94330D84
:100060000C94680C0C94680C0C94680C0C94680C40
:100070000C94680C0C94680C0C94680C0C94680C30
:100080000C942B0E0C94680C0C94680C0C94680C5B
:100090000C94680C0C94680C0C94680C0C94680C10
:1000A0000C94680C0C94680C0C94680C451D161E7E
:1000B000161E201E821FE221611F611F821EB81EB4
:1000C000E821F0F89C8E8783878E9CF8F00000FE74
:1000D000FF0303030303070EFCF80000FEFF030306
:1000E000030303070EFCF80000FFFF000000000000
:1000F0000000FFFF0000FEFF8383838383C7EE7C45
:10010000380000F8FC0E07030303070EFCF800009C
:100110003F7FE0C08080C0E07F3FFFFF0101010121
:10012000010101FFFF0000FFFF0C0C0C0C1C3E77CF
:10013000E3C100007FFFC0C0C0C0C0E0703F1F002F
:10014000001F3F70E0C0C0C0E0703F1F00007FFF95
:10015000C1C1C1C1C1E3773E1C00001F3F70E0C0B8
:10016000C0C0E0703F1F000000000001FFFF010061
:100170000000D5F08D14A1C881CFD9F1AF20005C6B
:1001800020FFFF7FFF1F8F4FAF1FFFEFEFEFEFEF5E
:10019000EFEFEFEFEFEFEFEFEFEFEFEFEFEFFF034B
:1001A000AB53AB13AB93AB93AB93AB93AB83FFEF7F
:1001B000EFEFEFEFEFEFEFEFEFEFEFEFEFEFEFEF4F
:1001C000EFEFEFEFEFEFEFEFEFEFEFEFEFEFEFEF3F
:1001D000EFEFEFEFEFEFCFDF9F3F7FFFFF03F8FE83
:1001E000FF00FAF5FA14D9D5D9D5D9D5D9D5D9D5AD
:1001F000D9D5D9D5E1FF01F5F9F519D4DAD5DAD495
:10020000D9D5D9D5D9D5D9D5D9E3FFFF3FDFEFF778
:100210003BD5D9D5D9D5D9D5D9D5D915F9F5F9033E
:10022000FF03F9F5F915D9D5D915F9F5F915D9D58A
:10023000D915F9F5F903FEF803E08F3F7FE0C1C15E
:10024000C1C0C0C0C0C0C0C0C0C0C0C0C0C0C0E08D
:10025000F1FFF0E1C1C1C0C0C0C0C0C0C0C0C0C0DB
:10026000C0C0C0C0C0607F7FF0E1C1C1C0C0C0C01D
:1002700040404040C0C0C0C0C1C1C1E0FF6041417A
:1002800041E0FFFFFFE0C1C1C1E0FFFFFFE0C1C1EE
:10029000C1603F8FE0FFFFFFFEFCFDF9FBFBFBFBB6
:1002A000FBFBFBFBFBFBFBFBFBFBFBFBFBFBFBFB9E
:1002B000FBFBFBFBFBFBFBFBFBFBFBFBFBFBFBCFBA
:1002C000C1E0E6E0C1CFFBCBCBFBFBFFC0C0F2E05F
:1002D000C8DFFBCBCBFBFBFFE0C0CECAC2E2FFFB1B
:1002E000CBCBFBFBFBFBFBFBFBFBF9FDFCFEFFFFB2
:1002F000FF08080A1D7F28FD3F38100A1DBF68FD52
:100300003F38100A1DBF683DFF38100A1D3FE83D09
:100310007FB81010141ABE70BA7E300A3D7F687D17
:100320007F7E2F0A3D7F685D3F78F010383FFD28C3
:100330007F1D0A10383FFD68BF1D0A1038FF3D6859
:10034000BF1D0A10B87F3DE83F1D0A307EBA70BE5F
:100350001A14102F7E7F7D687F3D0AF0783F5D681C
:100360007F3D0A08082068202810242A6030602079
:10037000320C19203020642038042A1824702038C8
:1003800014266A201000004404A000AEEA4EC6A263
:100390004A6AC6200048848448A4A04E4000480E03
:1003A0000000042448CAA64C4EE68EE62EAE22E893
:1003B0006E68EEE244CC66EE22404040484840E0A1
:1003C000E08480E204EA8E4AEAECAE6886CAACECCD
:1003D0008EEC8868A6AEAAE44E22A4ACAA888EAEA3
:1003E000EA6AAA4AA4EE88EAC6EACAE86EE444AA1F
:1003F000ACAAA4AAEAA4AAA444E24EC88C846226A9
:100400004A00000E1010000000C03008040404046C
:100410000830C00000000000000708102020202045
:100420001008070000001010000040C07EFFBBF263
:10043000C0C0C040404040407C82818080804020DD
:100440003020282D222478F0101000404040FEFF7C
:10045000BBF2C0C07FE155F25448FC82818160301C
:100460003C2E372B150A050300006010000000FC2D
:10047000FC3CF8E0800000FCFC0C00000080C06048
:100480006060E0C0000020E0E0C00000C0E060006C
:100490000060E0FCFC60600000000000000000FC68
:1004A000FC7C0000000000000080C0606060E0C0D4
:1004B0000000E0E0E0000000E0E020000080C0601C
:1004C0006060E0C0000000FFFF1F00000000787FB8
:1004D0001F0000030F3E787F1F0000001F3F66666D
:1004E00066673301004060781D070F3F7970400058
:1004F00000003F7F71603000000000000000787F46
:100500007F606060606000001F3F66666667330161
:100510000000000F7F7C781F030000001F3F66660D
:10052000666733010000787F7F000000301800000C
:1005300000000000000080C060A060A050B050B07B
:1005400050B050B050B060A040C0E0E0FCFFFFFEF3
:10055000ECE00000F0F0F8F800000000000080C0BF
:10056000C0C0F8EED5AB55AA55AA55AA55AA55AAAA
:1005700055FAAD56AB55AB55AB55AB55AB57AEDF9A
:100580007FDFCFC7C7C7C7CFC7C7C0C0C0C00000C5
:1005900001010F1B756A556A55AAD5AAD5AAD5AA15
:1005A000D5ABD6ADDA755A755A755A753A2D161FF0
:1005B0000D0A0D0701010101010101010101601096
:1005C00000000C3CFCF000C0E0781C0C0480C06013
:1005D0006060E0C0800000C0E0E0000000E0E0E01B
:1005E000000000E0E0C060606000000000000070FB
:1005F000F8CC8C8C0C0C1C0C00000080C06060607F
:100600006000000080C0606060E0C080000000E02A
:10061000E0C0606060000080C0606060E0C000001A
:1006200000000000797F7F01000000001F3F716023
:100630006060301F0F00003F7F7F6020187F7F03C6
:100640000000787F7F000000000000000000607064
:1006500060616163733F1E0000001F3F7060606057
:100660003000001F3F71606060301F0F0000787F16
:100670007F00000000001F3F6666666733010000D0
:1006800060300000000000000000000000000000DA
:1006900000000000C040209020140E0A03074747C6
:1006A0002545850206A2440408F080808080C0C0F1
:1006B000C0C08080808080800000000000000000BA
:1006C000000000000000F8FFFFFFFEFE7C000000BD
:1006D00000000080C0C0E0E0E080000000000000FA
:1006E000000000000000000000000000000000000A
:1006F00000C02417886100C02000C02090C8E4F228
:10070000725A2E352E38261F1B151A355A953A5512
:10071000AA356AD5AA55AB55ABD5EBD7EAD6ECD4FA
:10072000ECD4EEDFFFFFFFFF7F3FBFBFBFBE9E8069
:10073000C0E0E0FFFFFFFFFFFFFFE0C0C0000000E0
:10074000000000000000000000000000000000F8B1
:10075000468106214400140800FCAF56FF03010047
:10076000000000000000000000008080804146780A
:10077000A1A698D0D1D35EFB55AB55AA55AA55AAD0
:1007800055AA55AA55AA55AB55AB55ABDF7F3F1FB0
:100790001F0F0F0707070F0F1F1F1F0F0700000076
:1007A0000000000000000000000000000080403059
:1007B000984720804900C011C07FBE7DD7AE50E071
:1007C000800000001CE29ABD5D5D5E2E2E2F171783
:1007D00017F70B0BF905053FD5AA55AA55AA55AA37
:1007E00055AA55AA55AA55AAD5EABD5EAB55AE5C29
:1007F000B850B070A0E00000000000000000000051
:1008000000000C1C1436226243C7C7B5A1A2D659FA
:10081000122C2211DC72273C3B2D3A756A6DD7AA47
:10082000D5BEE00000000000000000000000000055
:1008300000037C80037C8000038EF5DAB5DAB5DA3C
:10084000FDDAFD5A6D762F371B1D0A0D0A0D0A0DB4
:100850000E05068383838383C3C343636332321AE3
:100860000E06000000000000000000000001010171
:1008700003070F0B1A12123626242424246C6C6CE6
:1008800048484B4C4C4C5C5CD8D8D8D8D090909011
:100890009090909F90989F9A998888C8C8C8C8C817
:1008A0004C4C4C4444444464666622222233131365
:1008B000190D070101000000000000000000000009
:1008C0000000601000C0F0380C0606068686820024
:1008D0000000C0C0602030B0F0F0000000F0F0C0B8
:1008E000203070F0E0C0203070F0E0000080C06088
:1008F0003030B0F0E00000000000C0F0380C060618
:1009000006060E1CF8F0000070F0F0000080F07099
:10091000100080C0603030B0F0E0000000F0F06007
:100920003030300000070F1C383030303F3F0300BC
:10093000001F3F3030100C3F3F2100003C3F3F0084
:1009400000003C3F3F0000003C3F3F00000F1F33D2
:1009500033333319000000000000070F1C3830301B
:100960003030180E0701000000073F3E3C0F010029
:1009700000000F1F33333333190000003C3F3F00AA
:1009800000000000202003070E1C3870E0C080C06B
:10099000E0F0F8FCFEFFFE000000000000B0B090A8
:1009A00090F89C0E0703FCFCFCFCFCFCFCFFFCF834
:1009B000F1E3C78F1F3F7FE070381A0019FBF1C0C9
:1009C0000003077FFCF03F3F3F3F3F3F3FFF3F1F9C
:1009D0008FC7E3F1F8FCFC070E1C5800D8FF8F030B
:1009E00000C0E0FE3F0FC0E070381C0E070301039B
:1009F000070F1F3F7FFF7F0000000000000D0D0963
:100A0000091F3970E0C02020000000000000000035
:100A100000C0E0F0F8FCFEFFFE0000000000003027
:100A20007070E0C080000000FCFCFCFCFCFCFCFEE4
:100A3000FFFFFFFFFFFFFFFFFF000000060E1EFC91
:100A4000F0C00003077FFCF03F3F3F3F3F3F3F7F49
:100A5000FFFFFFFFFFFFFFFFFF0000006070783F18
:100A60000F0300C0E0FE3F0F000000000000000088
:100A70000003070F1F3F7FFF7F0000000000000CF6
:100A80000E0E0703010000000D101820E01800F8FA
:100A9000A8880090A8A8480000F81020F8007088E6
:100AA000887000002020414C4C20494E47414D4564
:100AB00020434F44494E472C0A20204152542C20B9
:100AC0004D555349432C205346582042590A202063
:100AD00020202020202054524F444F53530A2020DE
:100AE0004D454E5520434F44452C20415254204201
:100AF000590A202020202020202020204A4F335235
:100B0000490A202041524455424F5920504F5254D7
:100B10002042590A202020202020202020464D411C
:100B20004E47410000004404A000AEEA4EC6A24A6F
:100B30006AC6200048848448A4A04E4000480E00A5
:100B400000042448CAA64C4EE68EE62EAE22E86E7D
:100B500068EEE244CC66EE22404040484840E0E087
:100B60008480E204EA8E4AEAECAE6886CAACEC8E77
:100B7000EC8868A6AEAAE44E22A4ACAA888EAEEA9F
:100B80006AAA4AA4EE88EAC6EACAE86EE444AAACB5
:100B9000AAA4AAEAA4AAA444E24EC88C8462264A63
:100BA00000000E3A40C0C0C0C0C0C0C0C0C0C0C07D
:100BB000C0C0C000000000C0C00000000000000075
:100BC00000C0C00000C0C00000C0C0C0C0C0C000A5
:100BD00000C0C0C0C0C0C0C0C0C0C0C0C0C0C0FF96
:100BE000FF0000FCFCFCFCFCFC0000FFFF000033ED
:100BF000333F3FCCCC3F3FC3C3F0F033330F0FC084
:100C0000C0F3F3F0F0CCCCF0F00000FFFF0000FCEC
:100C1000FCFCFCFCFC0000FFFFCFCFCCCCCCCCCC50
:100C2000CCCCCC0C0CCFCFC0C0CFCFC0C0CFCF006E
:100C300000FCFCC0C0FFFF03033C3C03030C0CF0B2
:100C4000F03F3FC0C00F0FCCCC0C0CCCCC0C0CCC6C
:100C5000CC0F0FCFCF3333CFCFF0F00000CCCCCCC4
:100C6000CC0F0FC0C0FFFF3030FCFC0C0C03030C9A
:100C70000C3C3C30300C0C0C0CF3F333330303030B
:100C800003F3F33F3FC0C0C0C030300303F0F000B7
:100C90000030300F0F3C3C3030CCCC33330000F010
:100CA000F0C3C30000F3F33F3FCCCCFCFC0F0F0FAD
:100CB0000F0F0F33333C3C0F0F0303333303030099
:100CC00000CFCF30300303FFFF0303F0F03F3F308E
:100CD00030F0F0CCCCCCCCCFCFFFFFC3C3FCFC0CAE
:100CE0000C00003030FCFCFFFFC3C3CCCC3333C35B
:100CF000C3C3C3CFCFFCFCF3F30F0FCFCFF0F0C3D0
:100D0000C3FCFC0C0CCCCCCCCCCCCC0C0CFCFC0038
:100D100000CFCF0F0F03030000F3F33F3FCFCF0C03
:100D20000C3333C3C303033F3FFFFFC0C0CCCCC071
:100D3000C0FFFFFFFFCFCF03033333FFFFC0C0CFA0
:100D4000CFCFCFCFCFC0C0FFFF0000FFFF3F3FCFCF
:100D5000CFFCFC0C0C00003030FCFC0F0FC3C303B5
:100D600003C3C330300F0F3C3CFFFFCCCCFFFFCCA4
:100D7000CC3F3F03030408030C30C00408C0300C10
:100D800003162000007C10107C00306858007C4066
:100D90004040007C14140800000000000074007C37
:100DA00008107C007C141404003048300000004817
:100DB0005454240030483000384078007C08107CBF
:100DC000007C44443800007C141408007C404040FF
:100DD000002054780098A0780000001B400000001C
:100DE0000778800000000000000000008080808004
:100DF00000000000000000000000000000031CE0F4
:100E00000000010103030387FFFE7F07000080004D
:100E10000000000000000000000081FE0070381C8F
:100E20000E070301000000EEA7E3E1000000000050
:100E300000F0F8FCFEFFFFFFF8C418C8D8F0F0F887
:100E4000F87E3FBF9F0780000000000003071F3FA0
:100E50007F7FFFFFFFFCE31FFFFFF3FCFEFFFFFFB1
:100E6000FF7F1F0880F0F8387878783C2C0C0D1D37
:100E70001F3F3F304FBF1F7FFFFBF9F9E0E000034A
:100E80000F1F7F7F00000000000000000000000036
:100E90000738C00107FFFFFFF180000000000000DD
:100EA00000000000000000000000006060617E980B
:100EB000FFFF3F17031B4000000000000000008000
:100EC00080808000000000000000000080780700A3
:100ED000000000000000800000077FFEFF87030382
:100EE0000301010000E01C030000000000000000FE
:100EF000E1E3A7EE0000000103070E1C387000FEBE
:100F00008100000000000000000080079FBF3F7EBE
:100F1000F8F8F0F0D8C818C4F8FFFFFFFEFCF8F0AE
:100F2000000000081F7FFFFFFFFFFEFCF3FFFF1F15
:100F3000E3FCFFFFFF7F7F3F1F070300000000E08F
:100F4000E0F9F9FBFF7F1FBF4F303F3F1F1D0D0C26
:100F50002C3C78787838F8F08080F1FFFFFF0701AB
:100F6000C038070000000000000000000000007F03
:100F70007F1F0F0303173FFFFF987E616060000033
:100F8000000000000000000000000000000000322F
:100F900010E0FC4CE0F01C0C0400E0E0402020E0FD
:100FA000C00000E0EC0C00C0E02020E0E03010FCCD
:100FB000FE462020E0C00000A0F838200000C0E07D
:100FC0002020200F0F0000030F0C00000F0F000067
:100FD000080F0300000F0F0070FF8B8A8A7B7900D7
:100FE000000F0F0000080F030000070F080800089B
:100FF00008090B0F0216103078ECC4C4840000F806
:10100000FE0680E0602000E0E00000E0E008080864
:10101000080F0700000F0F03030F0C0080C17F3E75
:101020000E0300A403A403A403A4033F03E402A447
:1010300003A403A403D2014B02D201DC03DC03DCD2
:1010400003DC03A4033F03DC03DC03DC03EE0193B6
:1010500002EE015504550455045504DC03A4035560
:101060000400002A0200002A02000055040000DCEF
:1010700004000075050000A40300007201D2012ADB
:10108000027201D2012A027201D2012A0272019F68
:1010900001D201EE016E02E402EE016E02E402EE04
:1010A000016E02E402D201EE010B022A02BA023FF3
:1010B000032A02BA023F03E40200003F030000E4F7
:1010C0000200003F030000E40200002A0200002AA0
:1010D0000200000B0200006E0200002A0200006EF7
:1010E000020000BA020000550455045504100370B4
:1010F0000310032605160400001604DC03160497EB
:1011000004160410031010101010101010101010FE
:1011100010101010101010101010101010101010CF
:10112000101010102010081020102010081020108F
:1011300002101010101010101010101010101010BD
:10114000101010101010101010101010101010208F
:1011500040204020402040102010202040204020EF
:101160004020401020102010101010100208080815
:10117000081010080804080800304884844830002B
:1011800000324894A1583200003054A1CAA0543112
:101190000808C86858A88543512EC86858684D8FFC
:1011A00098B02E514385A85868C8B0988F4D68589C
:1011B00068C8C06050A88442512EC06050684888FA
:1011C00098B02E514284A85060C0B09888486850AA
:1011D00060C00102040810204080080801030305D4
:1011E00007030D070F030F0D070B0F050F0507036F
:1011F0000701030181C383E5C7E3ADF783818381E1
:1012000083818381EFB5C7E3A7C1C38103050505CA
:101210000505050606050505050505030000000092
:1012200000000000000000000000000000000000BE
:1012300000000000000000000000000002030000A9
:10124000000000000000000000000102000000009B
:10125000000000000000000000000000000000008E
:10126000000000000000000000000000000000007E
:10127000000000000000000000000000000000006E
:101280000000000000000000000000000707040547
:10129000050505050505050505060808000000000B
:1012A000000000000000000000000000000000003E
:1012B0000000000000000000000000000203000029
:1012C000000000000000000000000102000000001B
:1012D000000000000000000000000000000000000E
:1012E00000000000000000000000000000000000FE
:1012F00000000000000000000000000000000000EE
:1013000000000000000000000000000007070405C6
:10131000050505050505050505060808000000008A
:1013200000000000000000000000000000000000BD
:1013300000000000000000000000000002030000A8
:10134000000000000000000000000102000000009A
:10135000000000000000000000000000000000008D
:10136000010202020202020300000000000000006D
:10137000000000000000000000000000000000006D
:101380000000000000000000000000000707040546
:10139000050505050505050505060808000000000A
:1013A000000000000000000000000000000000003D
:1013B0000000000000000000000000000203000028
:1013C000000000000000000000000102000000001A
:1013D000000000000000000000000000000000000D
:1013E00000000000000000000000000000000000FD
:1013F00000000000000000000000000000000000ED
:1014000000000000000000000000000000000405D3
:101410000505050505050505050600000000000099
:1014200000000000000000000000000000000000BC
:1014300000000000000000000000000002030000A7
:101440000000000000000000000001020000000099
:10145000000000000000000000000000000000008C
:10146000010202020202020300000000000000006C
:10147000000000000000000000000000000000006C
:101480000000000000000000000000000000040553
:101490000505050505050505050600000000000019
:1014A000000000000000000000000000000000003C
:1014B0000000000000000000000000000203000027
:1014C0000000000000000000000001020000000019
:1014D000000000000000000000000000000000000C
:1014E00000000000000000000000000000000000FC
:1014F00000000000000000000000000000000000EC
:1015000000000000000000000000000000000405D2
:101510000505050505050505050600000000000098
:1015200000000000000000000000000000000000BB
:1015300000000000000000000000000000000000AB
:101540000000000000000000000001020000000098
:10155000000000000000000000000000000000008B
:10156000000000000000000000000000000000007B
:10157000000000000000000000000000000000006B
:101580000000000000000000000000000000040552
:101590000505050505050505050600000000000018
:1015A000000000000000000000000000000000003B
:1015B000000000000000000000000000000000002B
:1015C000000000000000000000000000000000001B
:1015D000000000000000000000000000000000000B
:1015E00001020202020202030000000000000000EB
:1015F00000000000000000000000000000000000EB
:1016000000000000000000000000000000000405D1
:101610000505050505050505050600000000000097
:1016200000000000000000000000000000000000BA
:1016300000000000000000000000000000000000AA
:10164000000000000000000000000000000000009A
:10165000000000000000000000000000000000008A
:10166000000000000000000000000000000000007A
:10167000000000000000000000000000000000006A
:101680000000000000000000000000000000040551
:101690000505050505050505050600000000000017
:1016A000000000000000000000000000000000003A
:1016B000000000000000000000000000000000002A
:1016C000000000000000000000000000000000001A
:1016D000000000000000000000000000000000000A
:1016E00001020202020202030000000000000000EA
:1016F00000000000000000000000000000000000EA
:1017000000000000000000000000000000000405D0
:101710000505050505050505050600000000650031
:101720006800710064007D007D000B1000E0F81C73
:101730000606060EFCF800001F3F70606060381F50
:101740000F000000001808FCFE060000000000006A
:10175000007C7F7F0000000000000606060EFEFCF5
:10176000000000006070786C67636000000000009B
:1017700000C6C6C6E6FE9C000000606060603031B6
:101780001F0F000080C06030180CF6FE3E00000302
:10179000030303037B7F7F0303000000E0FECEC64C
:1017A000C686060000006060603030191F07000028
:1017B0000080F0F8DCCCC6C6000000001F3F70605F
:1017C00060713F0F00000000060606C6761E060088
:1017D000000060781C07010000000000000038FCD9
:1017E000C6C6C6FE3C0000001E3F716060713F1E11
:1017F00000000070FCCE86868EFCF8000000606061
:101800007131391F07010000080B000202020100BC
:101810000904000001020200000524001001052453
:1018200001010104240206052406000107058103C5
:1018300010004009040100020A000000070502022E
:101840004000000705830240000004030904120160
:101850000002EF0201404123368000010102030132
:1018600041726475696E6F204C4C4300417264751F
:10187000696E6F204C656F6E6172646F0000AC23FF
:1018800011241FBECFEFDAE0DEBFCDBF11E0A0E034
:10189000B1E0ECEFFAE402C005900D92A633B10777
:1018A000D9F726E0A6E3B1E001C01D92AE38B20739
:1018B000E1F71CE0C0E4DCE004C02197FE010E94D7
:1018C0005125CF33D107C9F70E94F5190C947C2517
:1018D0000C940000CF92DF92EF92FF920F931F9330
:1018E000CF93DF936C017A018B01C0E0D0E0CE157D
:1018F000DF0589F0D8016D918D01D601ED91FC9144
:101900000190F081E02DC6010995892B11F47E012B
:1019100002C02196ECCFC701DF91CF911F910F91AB
:10192000FF90EF90DF90CF9008953FB7F8948091AB
:10193000F0019091F101A091F201B091F30126B56F
:10194000A89B05C02F3F19F00196A11DB11D3FBFF7
:10195000BA2FA92F982F8827820F911DA11DB11D85
:10196000BC01CD0142E0660F771F881F991F4A9581
:10197000D1F708958091D401E091D201F091D30183
:10198000882349F0CF0102969093D3018093D2012E
:10199000859194910895CF0102969093D3018093FD
:1019A000D20180819181089580911706089508954C
:1019B000089580E090E00895109238011092CC01D3
:1019C000082E000C990B9093030180930201609301
:1019D000010181E0809300011092360110923A01DA
:1019E0001092CD01109237011092390108950E9492
:1019F00077258F929F92AF92BF92CF92DF92EF9214
:101A0000FF926B017C010E94950C4B015C01C1149B
:101A1000D104E104F104F1F00E94950CDC01CB014A
:101A200088199909AA09BB09883E9340A105B10507
:101A300070F321E0C21AD108E108F10888EE880E9F
:101A400083E0981EA11CB11CC114D104E104F1046F
:101A500019F7DDCFFF90EF90DF90CF90BF90AF9060
:101A60009F908F9008951F920F920FB60F9211249E
:101A70002F933F938F939F93AF93BF938091D50103
:101A80009091D601A091D701B091D8013091EF018A
:101A900023E0230F2D3720F40196A11DB11D05C0B1
:101AA00026E8230F0296A11DB11D2093EF0180931C
:101AB000D5019093D601A093D701B093D80180911E
:101AC000F0019091F101A091F201B091F301019622
:101AD000A11DB11D8093F0019093F101A093F2013B
:101AE000B093F301BF91AF919F918F913F912F914F
:101AF0000F900FBE0F901F901895CF92DF92EF922C
:101B0000FF920F931F93CF93DF930E94BA0C81151E
:101B100020E8920761F4809171008D7F80937100BD
:101B200010929100469847981092E8018BC021E0EE
:101B30002093E801813020E8920751F48091D00190
:101B40009091D1019093D3018093D2010E94BA0C5D
:101B500097FD05C02091E701222309F43FC02091A1
:101B6000E60121113BC021E02093E901EC01DF7780
:101B7000209769F481E08093EA0146983FE9C32EFB
:101B80003FE0D32EE12CF12CCAEFD0E014C08E013F
:101B900020E030E060E472E48FE090E0A901980179
:101BA0000E94CC2469017A0181E0C81AD108E108B9
:101BB000F1081092EA01E0911406F09115060995DA
:101BC000811103C081E08093EA018091E9018823BB
:101BD000B9F18091EA01811133C003C01092E9018B
:101BE000C5CF46992DC0479A0E94BA0C009771F054
:101BF0009C01DE010E942025DC01CB0129E0B59586
:101C0000A795979587952A95D1F703C08FEF9FEFFA
:101C1000DC01109290002AE020939100D09299006C
:101C2000C09298008093EB019093EC01A093ED019A
:101C3000B093EE018091710082608093710002C0C8
:101C40004798D2CFDF91CF911F910F91FF90EF90E6
:101C5000DF90CF9008951F920F920FB60F9211242C
:101C60002F933F934F935F936F937F938F939F93A4
:101C7000AF93BF93EF93FF938091EB019091EC01B1
:101C8000A091ED01B091EE01892B8A2B8B2B81F174
:101C90008091EA0181110BC098B180E4892788B94D
:101CA0008091E901882319F088B1805888B9809122
:101CB000EB019091EC01A091ED01B091EE011816AD
:101CC00019061A061B06B4F48091EB019091EC0101
:101CD000A091ED01B091EE010197A109B1098093A6
:101CE000EB019093EC01A093ED01B093EE0102C0E3
:101CF0000E947D0DFF91EF91BF91AF919F918F91C8
:101D00007F916F915F914F913F912F910F900FBEF7
:101D10000F901F9018954F925F926F927F928F92C3
:101D20009F92AF92BF92CF92DF92EF92FF920F936A
:101D30001F93CF93DF9300D000D0CDB7DEB749011A
:101D40002C2DA02EB12CDC01AA0DBB1D1A161B06D2
:101D50000CF0B3C1803891050CF0AFC1FB01EE0D62
:101D6000F11D1E161F060CF0A8C1603471050CF0A1
:101D7000A4C14115510509F4A0C1FB0177FF04C0BE
:101D8000EE27FF27E61BF70B3E2F3770732EFB0164
:101D900077FD379633E0F595E7953A95E1F73E2FD5
:101DA00077FF07C0772029F03FEF3E0F68E0671903
:101DB000762E97FF05C0EE27FF27E81BF90B02C020
:101DC000E0E0F0E0A038B10524F060E8F62EF81A63
:101DD00001C0F02EFE1A632F032E000C770B3F3F3D
:101DE0001CF4A62FA09501C0A0E011E0BE2DB77095
:101DF00009F410E0E694E694E694E10E6E0D711D90
:101E0000693071051CF068E0E62EE31AEA1A3A0F11
:101E100060E83603800D911D11248E0F9F1FA09F37
:101E2000E00DF11D11244E0F5F1F61E070E0072CE3
:101E300002C0660F771F0A94E2F7233009F4FCC052
:101E400098F4213009F4AEC0223009F036C12FEFEA
:101E5000269F8001279F100D1124009510951C834B
:101E60000B835C80E30E27C02A3F29F02B3F09F04B
:101E700024C1E30E83C0E30E4EC0FA01EC0DFD1D3C
:101E8000E491E69F4001E79F900C11249A82898299
:101E900037FD04C02C912023822A8C92711014C02B
:101EA000EFEFCE1ADE0A1196CF1438F33F5F4A0DDA
:101EB0005B1D80589F4F3E1509F4FFC0DC01AA5FEF
:101EC000BD4FC12CD12CF0CF373054F7FD01E05875
:101ED000FF4F208125219A8029292083E1CFFA0113
:101EE000E00FF11FE491E69F6001E79FD00C112401
:101EF000DA82C98237FD03C02C91C22ACC927110BC
:101F000013C00F5F1F4F11960F1548F33F5F4A0D27
:101F10005B1D80589F4F3E1509F4CFC0DC01AA5FBE
:101F2000BD4F00E010E0F0CF37305CF7FD01E05826
:101F3000FF4FD0802A812D292083E3CFFA01EC0DB9
:101F4000FD1DE491E69FD001E79FB00D1124BA83F7
:101F5000A98337FD05C0A095F8012081A223A083A5
:101F6000711015C0FFEFCF1ADF0A0F5F1F4FCF149C
:101F700028F33F5F4A0D5B1D80589F4F3E1509F4C3
:101F80009CC08C010A5F1D4FC12CD12CF0CF373083
:101F90004CF7F801E058FF4F2A812095A0812A23B1
:101FA0002083E0CFD401AE0FBF1FE30E3E1509F42E
:101FB00084C0FC01EA5FFD4F4F01C12CD12CCF142E
:101FC00098F5FD01EC0DFD1DE491E69F8001E79F72
:101FD000100D1124009510951C830B83FA01EC0D54
:101FE000FD1DE491E69F2001E79F500C11245A82C9
:101FF000498237FD05C0F40120810223402A408236
:10200000772059F037304CF4F401E058FF4F10813D
:102010002C8121231A81212B2083FFEFCF1ADF0A85
:102020002FEF821A920ACBCF3F5F4A0D5B1DAA0D9C
:10203000BB1D80589F4FBACFCF2CD12CE40FF51F7A
:10204000DC01AA5FBD4FAC014A575D4F00E810E0CC
:102050000C191D09AC18BD08AA0CBB1C6F2C2E2D29
:10206000CF93DF93EA018590C590772059F0869E43
:102070004001C69E600137302CF49881D0949D2198
:102080009929999333233AF09C91C0949C219829E3
:102090009D930C944C101196FA9429F7EA9451F000
:1020A000F62C33951124EA0DF11DA00FB11DC00FC0
:1020B000D11DD9CFDF91CF9111240F900F900F90A8
:1020C0000F90DF91CF911F910F91FF90EF90DF90D4
:1020D000CF90BF90AF909F908F907F906F905F90C8
:1020E0004F900895CF92DF92EF920F93CF93DF93AB
:1020F0004115510569F1FA0104913196E4904E5F62
:102100005F4F2223F9F0C02FD0E0AE2DA695A69503
:10211000A695EA2FF0E0A1E0B0E03E2D377011F473
:10212000A0E0B0E0AE0FBF1FCA9F6001CB9FD00CF4
:10213000DA9FD00C11242C9DF0012D9DF00D11245F
:102140004E0F5F1F22E0C22E20E030E00E948B0E77
:10215000DF91CF910F91EF90DF90CF9008952D9A5E
:102160000895BC0180E090E00C94F90C8FB12CB183
:1021700093B130E02095309520743327A90123E0F6
:10218000559547952A95E1F7292F30E02095309510
:10219000207133273595279535952795242B8095E4
:1021A000807F822B089583B7817F83BF83B781604F
:1021B00083BF889583B78E7F83BF08958EBD00004F
:1021C0000DB407FEFDCF0895109217063E983F9874
:1021D00008953E9A3F9A81E08093170608951F93D1
:1021E000CF93DF93182FC82FCC0FDD0BFE01EC5DD2
:1021F000F84E2591349140E050E060E67AEE80E0C0
:1022000090E00E94CC24220F331F220F331F309303
:10221000050220930402FE01E25EF84E25913491FE
:10222000215031093093010220930002FE01E45E47
:10223000F84E859194919093FD018093FC0110924A
:102240000D011093F801DF91CF911F9108950F9325
:1022500090913B0139E09302F0011124E45CFE4FC0
:1022600090838183628343831682248389E18783F9
:10227000058310869F5F90933B010F9108952091F5
:10228000CE0130E82303F0011124E80FF11D87FD92
:10229000FA9580E16802E00DF11D1124E45EFD4E27
:1022A00084910895EF92FF921F93CF93DF937A0169
:1022B000962F977897FF03C09150986F9F5FD62F06
:1022C000D91BC8E0C60F082E000C990B23E095958A
:1022D00087952A95E1F7F70180831D2F15951595B0
:1022E0001595CD1754F0612FF70180810E943F11A1
:1022F00018162CF01F5FD85FF4CF80E001C081E09A
:10230000DF91CF911F91FF90EF900895CF92DF92D0
:10231000EF92FF920F931F93CF938A01E82E082E1E
:10232000000CFF08877887FF03C08150886F8F5F9C
:102330006701C81AD10887FDD39488E0E80EF11C24
:10234000062E000C770B83E0759567958A95E1F76B
:10235000F8016083C60123E0959587952A95E1F7FA
:10236000C82FEC14FD0464F0F80160818C2F0E94EA
:102370003F1118163CF0CF5FF8E0CF0ED11CF1CF23
:1023800080E001C081E0CF911F910F91FF90EF900D
:10239000DF90CF900895EF92FF920F931F93CF930A
:1023A000DF93E12CF12CD0E000E010E0C0E06D2FD5
:1023B0008C2F0E943F11181644F42FEF280F4AED7E
:1023C00051E1B701C8010E947210CF5F085F1F4F33
:1023D000C03169F7DF5F88E0E80EF11CD83021F7E3
:1023E000DF91CF911F910F91FF90EF9008950F9380
:1023F0008091CE018F5F8093CE019091CF019F5F3E
:102400009093CF018A301CF082E08093CE0180E966
:10241000ECE3F1E0DF011D928A95E9F710923B01B0
:1024200001E020E040E060E085E30E942711809118
:10243000CF018330C4F021E048E361E08AE00E94EC
:10244000271121E048E368E08AE00E94271121E09B
:1024500048E360E78AE00E94271121E048E368E74B
:102460008AE00E9427118091CF0165E00E942F250C
:10247000911120C002E027E048E068E783E30E9472
:1024800027118091CF01863034F027E046E160E0EB
:1024900083E30E94271102E027E042E268E783E33A
:1024A0000E94271180910401181624F58150809311
:1024B000040120C00091040122E048E068E780E0C8
:1024C0000E9427118091CF01863044F000910401D1
:1024D00024E046E160E080E00E9427118091CF0176
:1024E000843044F00091040122E042E268E780E099
:1024F0000E94271167E280E40E94DC0C0F910C948B
:10250000CB11CF93DF93CDB7DEB762970FB6F894B8
:10251000DEBF0FBECDBF81E080933A0189E0ECE3DE
:10252000F1E0DE011A9601900D928A95E1F7309163
:102530000201209101013C872D8797E09E87188A30
:1025400089E1898B49E0FE013A96DE0111960190FE
:102550000D924A95E1F7AA85A9833B832C839D833D
:102560001F82888789E0A89FD0011124A45CBE4FF8
:1025700089E0FE01319601900D928A95E1F762960D
:102580000FB6F894DEBF0FBECDBFDF91CF91089597
:102590002091000190913801821304C094301CF501
:1025A0009F5F1FC0191674F080930001813019F4E9
:1025B0001092360103C087E08093360181E080935A
:1025C000380108958091CD01811103C081E080938D
:1025D0003701213011F484E001C08BE08093360193
:1025E00091509093380108954F925F926F927F922D
:1025F0009F92AF92BF92CF92DF92EF92FF920F9392
:102600001F93CF93DF9302E02002800D911D1124D0
:102610009C0120543109F90184918095042E000C0D
:10262000550B94E0992E70E0462E062E000C5508AE
:10263000E0E1AE2EF2EDEF2EF1E1FF2EE201B12C42
:10264000783031F42F5F3F4FF9018491809570E02D
:10265000E82F072E01C0EE0F0A94EAF7E7FD18C035
:10266000C038D105A8F44034510590F4F7019B2DF2
:10267000960F8A01A09ED001A0781124A90F07709F
:10268000E00FF11D9491AA5FBD4FEC919E2B9C939E
:102690007F5FB394219614E0B112D2CF9A944F5F2A
:1026A0005F4F9110CBCFDF91CF911F910F91FF9092
:1026B000EF90DF90CF90BF90AF909F907F906F9002
:1026C0005F904F9008959F92AF92BF92CF92DF920A
:1026D000EF92FF920F931F93CF93DF93CDB7DEB7A7
:1026E0002A970FB6F894DEBF0FBECDBF6C01EA8209
:1026F000FB823F83E22EB42EA52EF62E222309F470
:102700007FC063135FC0B39481E08B1508F4B12CD4
:1027100082E0E81621F084E0E81639F15EC003306B
:1027200008F452C05EEFF52EF00EAE014F5F5F4F22
:10273000612F8F2D0E945211882309F448C04EEF5B
:10274000F42EF10EAE014F5F5F4F6F2D802F0E9470
:102750008611882309F440C032E0F32EF10EAE0159
:102760004F5F5F4F6F2D802F28C0802F90E08837FC
:1027700091057CF5AE014F5F5F4F612F8AE0800FBE
:102780000E945211811102C00E5F27C09EEFF92EE8
:10279000F10E28E0922E900EAE014F5F5F4F6F2D2D
:1027A000892D0E9486118823B9F082E0F82EF10E5F
:1027B000AE014F5F5F4F6F2D892D0E9486118111F1
:1027C0000EC00AC0F3940EC0F12C08E70BC00F2D09
:1027D00004C0F12C00E006C01F2DF12C03C0F12C29
:1027E000EE24E3942B8122502E0D2B0D612F70E0EF
:1027F00040E951E1802F90E00E947210A110AA944C
:102800000C831D83EE82B886A986FA8689E0FE01D4
:102810003296D60101900D928A95E1F7C6012A966B
:102820000FB6F894DEBF0FBECDBFDF91CF911F91E1
:102830000F91FF90EF90DF90CF90BF90AF909F905F
:102840000895AF92BF92CF92DF92EF92FF920F93D3
:102850001F93CF93DF93CDB7DEB72A970FB6F894C7
:10286000DEBF0FBECDBF6C01EA82FB823F83E02E4C
:10287000022FB42EA52EF62E222309F44FC0631387
:1028800038C02830E1F02930F1F02730E9F5AE0109
:102890004F5F5F4F6AE0610F8E2D0E94861181119C
:1028A00006C0812F90E08E9734F51E5F2DC01981F0
:1028B000110F110F110F1950F12C08E026C05523EC
:1028C00001F1AA9421C0B39482E08B15E8F48B81C6
:1028D000833341F401E022E0412F6E2D80E00E941D
:1028E000271104C0612F8E2D0E94DC0CF12C00E01A
:1028F0000CC0F3940AC0F12C08E01FE288E2E82E35
:1029000004C0F12C09E001C0F12C612F70E02B2DE7
:1029100046E751E18E2D90E00E947210EC821D83FB
:102920000E83B886A986FA8689E0FE013296D60122
:1029300001900D928A95E1F7C6012A960FB6F89498
:10294000DEBF0FBECDBFDF91CF911F910F91FF90E2
:10295000EF90DF90CF90BF90AF90089580E00C94FF
:102960000416FC018091F601811103C08FEF9FEFE7
:1029700008959FB7F89482E08093E9002091F200D7
:1029800030E01216130614F421E030E02115310571
:1029900059F0289884E68093F5018091F1008083B6
:1029A0008091F200882319F09FBFC90108958BE63A
:1029B0008093E800F9CF2FB7F89483E08093E90083
:1029C0009091E800892F807295FF04C09091F200E9
:1029D00080E4891B2FBF0895CF93DF931F92CDB75B
:1029E000DEB76983DC01ED91FC910280F381E02D7B
:1029F00041E050E0BE016F5F7F4F09950F90DF917E
:102A0000CF91089583E08093E9008091F2008823BC
:102A100019F08AE38093E80008950E94DB1490E0A7
:102A20000895CF93DF931F92CDB7DEB7FC01848565
:102A3000958597FD05C02FEF3FEF358724870BC0A5
:102A4000CE0101960E94B114019719F4898190E09A
:102A500002C08FEF9FEF0F90DF91CF9108950F93FA
:102A60001F93CF93DF931F92CDB7DEB78C01FC018C
:102A70008485958597FF0EC0CE0101960E94B11402
:102A8000019719F4298130E002C02FEF3FEFF801E0
:102A900035872487F801848595850F90DF91CF9144
:102AA0001F910F910895FC018485958597FD0BC0BA
:102AB0009FB7F89482E08093E9008091F2009FBF75
:102AC00090E0019608959FB7F89482E08093E90022
:102AD0008091F2009FBF90E008958F929F92AF92F5
:102AE000BF92CF92DF92EF92FF920F931F93CF93FB
:102AF000DF935C016B017A0180910C01882309F45A
:102B00005BC08091F601882309F456C08091F401DE
:102B100080FF05C08091E00082608093E000E701C3
:102B200010E00AEF83E0882E9AE3992E2097D9F1DE
:102B30000E94DB1481110AC0015009F43DC061E01C
:102B400070E080E090E00E94F90CF0CF282F30E098
:102B5000C217D3070CF48C2F4FB7F8948092E9007A
:102B60009091E80095FF1DC0282F30E0C21BD30BC9
:102B7000F601982F915020F081918093F100FACFC7
:102B8000C20ED31E112319F09092E80009C0809163
:102B9000E80085FD06C09092E80011E0209709F05A
:102BA00010E04FBFC3CF1111C3CF5D9884E680936F
:102BB0002B061E141F0444F081E090E0F50193837E
:102BC000828380E090E001C0C701DF91CF911F9127
:102BD0000F91FF90EF90DF90CF90BF90AF909F90BC
:102BE0008F900895809106028EBDE7E0F2E081911A
:102BF0000DB407FEFDCF8EBD86E0E630F807B9F7CD
:102C00000DB407FEFDCF0895E6E0F2E081118FEFED
:102C1000002481938193819381930394D1F7089544
:102C2000AF92BF92CF92DF92EF92FF920F931F93DA
:102C3000CF93DF93CDB7DEB72B970FB6F894DEBFF7
:102C40000FBECDBF182FC62EDA01C9014AE09E0182
:102C50002F5F3F4F7901B9010E948124F701019054
:102C60000020E9F73197EE19FF090E1B312FD12C07
:102C7000AC2C0C2C000CBB08D0167CF420E04AE2F3
:102C800057E1B501832F032E000C990B3B870E945F
:102C900072103B85355FD394EFCF07FD00E03BE03A
:102CA000039F100D1124012F0C2C000CDD08F701DF
:102CB00021917F01222361F020534AE257E1B601BE
:102CC000802F002E000C990B0E947210055FEFCF31
:102CD0002B960FB6F894DEBF0FBECDBFDF91CF911C
:102CE0001F910F91FF90EF90DF90CF90BF90AF902A
:102CF000089520911F06282329F490911E069823F9
:102D000081E009F480E00895809104029091050229
:102D1000909303028093020280910002909101023D
:102D20009093FF018093FE018091FC019091FD0141
:102D30009093FB018093FA0180910D018093F9013A
:102D40008091F8018093F70181E00E94EF1083E009
:102D500080930D0108958091300681110DC082E0AD
:102D600080932C0684E080932D0610922F061092FB
:102D70002E0681E0809330068CE296E008951F9243
:102D80000F920FB60F9211248F939F938091E100C1
:102D90009091E100937F9093E10083FF0FC0109228
:102DA000E90091E09093EB001092EC0092E3909395
:102DB000ED001092F60198E09093F00082FF20C0A1
:102DC00093E09093E9009091F200992319F09AE32F
:102DD0009093E80090912B06992339F090912B065F
:102DE000915090932B06992389F19091F5019923A5
:102DF00039F09091F50191509093F501992341F1AB
:102E000084FF10C08091E2008E7E81608093E2009A
:102E10008091E1008F7E8093E1008091F4018E7EAD
:102E2000806111C080FF16C08091E2008E7E8061BB
:102E30008093E2008091E1008E7E8093E10080919A
:102E4000F4018E7E81608093F40104C05D9ACDCF41
:102E5000289AD6CF9F918F910F900FBE0F901F9001
:102E6000189540918C0650918D0620918A063091DC
:102E70008B0642175307B4F49091E8009570E1F384
:102E80009091E80092FD19C08093F10080918C062A
:102E900090918D0601968F739927892B19F48EEFE7
:102EA0008093E80080918C0690918D060196909316
:102EB0008D0680938C0681E0089580E00895DF926E
:102EC000EF92FF920F931F93CF93DF93D82E8A0137
:102ED0007B01E40EF51EEB01CE15DF0571F0D7FE88
:102EE00003C0FE01849101C088810E9431172196A0
:102EF0008111F2CF8FEF9FEF01C0C801DF91CF9119
:102F00001F910F91FF90EF90DF900895615030F086
:102F10002091F100FC0120830196F8CF289884E6E7
:102F20008093F50108950F931F93CF93DF931F9222
:102F3000CDB7DEB782E0898342E450E068E078E113
:102F400080E80E945F170E94AB16DC0112960D917B
:102F50001C9113970115110569F0D801ED91FC91B1
:102F60000280F381E02DBE016F5F7F4FC80109959C
:102F700097FF07C089810F90DF91CF911F910F912B
:102F80000895F80100851185E5CF1F920F920FB6C5
:102F90000F921124CF92DF92EF92FF920F931F9323
:102FA0002F933F934F935F936F937F938F939F9351
:102FB000AF93BF93EF93FF93CF93DF93CDB7DEB77C
:102FC0006C97DEBFCDBF1092E9008091E80083FFCF
:102FD000EDC168E0CE0145960E94861782EF80938E
:102FE000E8008D8987FF05C09091E80090FFFCCF35
:102FF00003C09EEF9093E800982F907609F0C6C02A
:103000009E892F89188D91110CC0803829F48091E8
:1030100089068093F10002C01092F1001092F10035
:1030200048C1422F50E0512B913051F4811141C1E0
:103030004130510509F03DC1809189068D7F0BC05B
:10304000933061F4811135C14130510509F031C12E
:10305000809189068260809389062BC1953041F466
:103060008091E80080FFFCCF20682093E30021C11D
:10307000963009F05FC0EB8CFC8C1092E900109246
:103080008D0610928C06123091F510928B061092DC
:103090008A060E94931799E0BE016F5F7F4FDB01A4
:1030A000E92F1D92EA95E9F799831A8391E09E83AF
:1030B00090EA98879AEF998720918C0630918D0637
:1030C000275F3F4F3C832B838D831092E900109242
:1030D0008D0610928C06F0928B06E0928A0649E0EB
:1030E00050E080E00E945F170E949317E2C0F092C8
:1030F0008B06E0928A060E94AB16DC011296ED90D8
:10310000FC901397E114F10409F4C0C0D701ED91CC
:10311000FC910480F581E02DBE016B5E7F4FC701FD
:103120000995009719F00CF0C4C0C7C0F701E084FE
:10313000F184E8CF973009F4C0C0983021F481E0E1
:103140008093F100B6C0993009F0B3C0837009F0E4
:10315000B4C0EFE2F1E081E021E036E39081992311
:1031600061F08093E9002093EB0091919093EC0043
:103170003093ED008F5F873089F78EE78093EA0008
:103180001092EA008F898093F60193C08B8D9C8DFD
:103190001092E90010928D0610928C0690938B0687
:1031A00080938A06898D811156C08E899D89913AB6
:1031B00059F4813209F081C047E050E065E071E0E8
:1031C00080E00E945F1775C0913209F076C08332AB
:1031D00089F4888D90E0982F88272F89822BA0E092
:1031E000B0E080930E0190930F01A0931001B09373
:1031F00011015FC0803269F48091E80082FFFCCF4A
:1032000067E085E091E00E9486178BEF8093E800ED
:1032100006C0823209F04DC08F8980930C018091E5
:103220008806882319F0EEEFFAE002C0E0E0F8E04B
:103230008091050190910601A0910701B0910801CC
:10324000803B9440A105B10509F07BC080910C0141
:1032500080FF93C076C00E94AB16DC0112960D91E0
:103260001C9113970115110541F1D801ED91FC91C5
:103270000190F081E02DBE016B5E7F4FC801099582
:10328000811117C0F80100851185ECCF113009F4C8
:103290004EC0133091F48F89882309F445C08230E1
:1032A00081F440E860E18CE698E10E94E8238823FD
:1032B00021F08EEF8093E80079C081E28093EB00EB
:1032C00075C0813029F440E86BE080E698E1EDCFED
:1032D000833099F70E94AB16DC011296ED90FC90BA
:1032E00013978E010F5F1F4F6801E114F10479F00D
:1032F000D701ED91FC910680F781E02DB801C7015F
:103300000995080F111DF701E084F184EECFD80173
:103310001C92F60101900020E9F73197BF016C196A
:103320007D0940E0C601C1CF6AE478E102C06EE4E5
:1033300078E16115710509F2FB01449150E080E8E4
:1033400040CF0FB6F894A895809160008861809373
:103350006000109260000FBEA895EE3F2AE0F207D1
:1033600039F08091FE0A9091FF0A91838083A1CF6A
:103370001092FF0A1092FE0A9CCFEE3F8AE0F807F7
:1033800031F0808191819093FF0A8093FE0A87E754
:1033900097E7918380839BE088E10FB6F894A89526
:1033A000809360000FBE9093600083CF6C960FB641
:1033B000F894DEBF0FBECDBFDF91CF91FF91EF91AB
:1033C000BF91AF919F918F917F916F915F914F913D
:1033D0003F912F911F910F91FF90EF90DF90CF9031
:1033E0000F900FBE0F901F901895CF93DF93CDB71E
:1033F000DEB7CE55D1090FB6F894DEBF0FBECDBFF4
:10340000789484B5826084BD84B5816084BD85B5BF
:10341000826085BD85B5816085BD80916E008160CB
:1034200080936E0010928100809181008260809371
:103430008100809181008160809381008091800073
:1034400081608093800080919100826080939100E0
:1034500080919100816080939100809190008160C3
:10346000809390008091C10084608093C10080911E
:10347000C10082608093C1008091C100816080930F
:10348000C1008091C30081608093C3008091C0001F
:1034900082608093C0008091C20081608093C200EE
:1034A00080917A00846080937A0080917A008260B3
:1034B00080937A0080917A00816080937A00809175
:1034C0007A00806880937A001092F6011092890643
:1034D0001092F4018091D70081608093D70080EA38
:1034E0008093D80089B5806189BD89B5826089BD26
:1034F00009B400FEFDCF61E070E080E090E00E9442
:10350000F90C8091D8008F7C80618093D8008091E5
:10351000E000807F8093E0008091E1008E7E8093C8
:10352000E1008DE08093E200559A209AEEEFFFE7EC
:10353000859194918B3F9C4D19F481E0809388068E
:1035400081EC80937C0085B1806F85B9249884B12B
:10355000866E84B95E9A5F988AB1806D8AB9769AD0
:103560006E9881B3806F81BB899880B38D7080BB6A
:1035700080E58CBD81E08DBD85E090E00E94B110BA
:103580005F9A85E090E00E94B1105E985C9802E737
:1035900011E07DE0F72EF00EF80184910E94DE101C
:1035A0000F5F1F4FF012F8CF5C9A81E880936400A0
:1035B00081E08093650000E014E080E00E94DE106E
:1035C00001501109D1F70E94B61087FF1FC05C9807
:1035D00085EA0E94DE105C9A2E982F982D98809193
:1035E00064008062809364000E94D310FDCF2D9808
:1035F0000E94B6108478843871F00E94B6108471ED
:10360000843131F188EC90E00E94B1100E94B61034
:1036100082FDEDCF3AC00E94AF1088EC90E00E948E
:10362000B1102F9882E090E00E94B6248F3F29F0DD
:103630006FEF82E090E00E94BE2484EF91E00E9450
:10364000B1102F9A0E94B61084788438D9F3D5CF60
:103650000E94AF1088EC90E00E94B1102E9882E09A
:1036600090E00E94B624882329F060E082E090E098
:103670000E94BE2484EF91E00E94B1102E9A0E9415
:10368000B61084718431D9F3BDCF0E94AF1082E0AF
:1036900090E00E94B624882319F00E94E91002C02D
:1036A0000E94E4102E980EEE1FEF68E0A62EB12CBB
:1036B0000E94B61086FF04C02E9A2F9A2D9A83C0BE
:1036C0000C3FFFEF1F0719F42E9A2F9805C0083101
:1036D000110511F42F9A2D9880E00E940416003FE6
:1036E0002FEF120784F40E94F2158BE190E00E9404
:1036F000B110003F3FEF130709F059C08AEF90E087
:103700000E94B11054C0980117FF04C0222733272C
:10371000201B310B27703327C80117FD079653E094
:10372000959587955A95E1F717FF05C00197A50173
:10373000421B530B9A017C01F694FE2CEE24F79465
:10374000E79460E070E03501621A730AF701E0580F
:10375000FF4F4F018F3FFFEF9F0744F40196685AD8
:103760007F4F7401603B710589F7BDCFD701A65625
:10377000BD4F40E050E08F3FEFEF9E0709F43CC69D
:10378000FA01E60FF71FEE53FF4FE4916D01C818E1
:10379000D908CE0CDF1CF0E01F01022E01C0220C64
:1037A0000A94EAF7F60150802528208225C60F5F8B
:1037B0001F4F0931110509F07BCF8CEB92E00E947D
:1037C000B1100E94AF1082E390E00E94B1100E94FD
:1037D000B6108111F8CF82E48093200681E00E9428
:1037E000041620E04FE751E060E170E082E190E0F4
:1037F0000E9472100E94F21588EB9BE00E94B110AB
:103800001092E0011092E1011092E2011092E301A6
:1038100012E01093DF011092E50180E00E94EF10AA
:1038200010930D0134E0432E512C612C712C2FB7D5
:10383000F8948091D5019091D601A091D701B091D3
:10384000D8012FBF4091250650912606609127068A
:103850007091280620912906222341F0209121060B
:10386000821B80932A0610922906BEC584179507ED
:10387000A607B70738F4481B423008F4B5C50E94C4
:10388000D310B2C521E0209329068093210690939E
:103890002206A0932306B093240620912006820FCF
:1038A000911DA11DB11D8093250690932606A0931E
:1038B0002706B093280680911C0690911D0601965C
:1038C00090931D0680931C0680911806882309F4A6
:1038D000C5C080910D01813009F4BCC01CF488235F
:1038E00021F0BCC084300CF0B9C08FB7F89440917F
:1038F000D5015091D6016091D7017091D8018FBF49
:103900008091DB019091DC01A091DD01B091DE019D
:10391000481759076A077B0708F4A0C02091FC01EB
:103920003091FD0180910002909101022817390722
:1039300071F580910D01823031F0833041F08111B9
:1039400026C081E001C084E080930D0120C08091F9
:1039500002029091030290930502809304028091E9
:10396000FE019091FF0190930102809300028091EB
:10397000FA019091FB019093FD018093FC018091ED
:10398000F90180930D018091F7018093F801E09196
:10399000FC01F091FD01EB5FFE4E649170E08091BF
:1039A0000402909105020E943D252FB7F894809162
:1039B000D5019091D601A091D701B091D8012FBF28
:1039C0008B01072E000C220B330B800F911FA21FBF
:1039D000B31F8093DB019093DC01A093DD01B093D2
:1039E000DE0180911606882359F1E091FC01F091E7
:1039F000FD01EE0FFF1FED5DFF4E2591349180918B
:103A000071008D7F809371001092D40186E096E062
:103A10009093D3018093D2019093D1018093D001F0
:103A200030930706209306067093090660930806F4
:103A300080E090E890930B0680930A060E947D0D2B
:103A40008091FC019091FD0101969093FD0180937E
:103A5000FC0104C08091F8010E94EF1080911E06C5
:103A600080931F060E94B61080931E060E94B61017
:103A7000E091E5018E2F90E08B30910508F0B2C403
:103A8000FC01EA5AFF4F0C9451250E94AE1420E02D
:103A900045EF5FE06EEF7FEF84E390E00E947210ED
:103AA00020E04FE85FE06DE070E086E290E00E9489
:103AB000721020E045EB5EE06FEF7FEF80E090E07A
:103AC0000E94721020E04BED5DE06FEF7FEF85E626
:103AD00090E00E947210E1E8FDE00491E2E8FDE070
:103AE000E4909AEFC92E20E030E043E85DE06DE11C
:103AF00070E084E390E00E948B0E1091E401F8E006
:103B00001F9F700111242EE1E20EF11C20E04BE713
:103B10005DE0B7018FE290E00E94721020E045E77F
:103B20005DE0B7018BE490E00E94721080E80E9493
:103B30007916882329F0112319F011501093E4010C
:103B400080E10E947916882339F08091E401833066
:103B500018F48F5F8093E40188E00E94791688232F
:103B600009F440C480E00E9404168091E401813091
:103B700049F1C8F0823009F457C0833009F032C4EB
:103B800084E08093E50180930D011092E001109292
:103B9000E1011092E2011092E30182E08093DF01E3
:103BA0000E94F7111FC481E08093E5010E94AE14CA
:103BB00020E043EA5BE06CEF7FEF83E290E00E945D
:103BC000721010C482E08093E5010E94AE1420E0E0
:103BD00045EF5FE06EEF7FEF84E390E00E947210AC
:103BE00020E04FE85FE06DE070E086E290E00E9448
:103BF0007210E4EAFAE024917F010EE114E122233D
:103C000009F4F0C32A3041F0402F612F84E29BE099
:103C10000E94F4121C5F02C00B5F14E13FEFE31A35
:103C2000F30AF7012491EBCF83E0DAC388E00E9426
:103C30007916882309F4D6C380E00E9404165FC079
:103C40000E94AE1480911806811103C044E859E027
:103C500002C046E05AE020E067E070E08FE290E0CA
:103C60000E94721020E048E85AE06EE270E08AE3B9
:103C700090E00E9472106091180618EF1603B001D0
:103C80001124695C7F4F20E04BE75DE080E390E02A
:103C90000E947210609118061603B0011124695C2D
:103CA0007F4F20E045E75DE08CE490E00E947210D9
:103CB00080E80E947916882339F0809118068111D6
:103CC00003C081E08093180680E10E947916882362
:103CD00029F08091180681111092180688E00E9440
:103CE0007916882309F47EC38091180680931606FE
:103CF000882319F00E94E91002C00E94E41010927B
:103D0000E50170C387E08093E5010E94AE1420E0D6
:103D100042EC58E06EEF7FEF80E190E00E9472107D
:103D200020E040E856E06FE070E080E190E00E9423
:103D300072100E94F21580ED97E00E94B1100E946F
:103D4000AE1420E04EEB55E062E170E080E190E0DF
:103D50000E9472102091E0013091E1014091E20156
:103D60005091E30108E064E286E10E9410163AC334
:103D700084E080930D018AE08093E5010E94AE14F7
:103D800020E04EEB55E060E070E080E190E00E94C2
:103D9000721020E04CE255E062E170E080E490E0D7
:103DA0000E94721020E04CE255E062E170E084E194
:103DB00090E00E9472102091E0013091E101409169
:103DC000E2015091E30108E06DE286E10E941016E5
:103DD0000E94F21580ED97E00E94B1100E94AE148F
:103DE0002091CF012F5F1092D9011092DA01822F1A
:103DF00065E00E942F25911108C0263014F482E05E
:103E000001C083E08093D9010BC0243014F481E019
:103E100005C0263014F482E001C083E08093DA010B
:103E200020E04AE654E06EEF7FEF80E190E00E94F0
:103E3000721020E048E454E06EE070E088E290E028
:103E40000E94721020E046E254E06FE170E088E2E8
:103E500090E00E94721020E044E054E060E370E0E3
:103E600088E290E00E9472102091DF01022E000C87
:103E7000330B2F5F3F4F032E000C440B550B03E019
:103E80006EE082E40E9410162091DA01022E000CEE
:103E9000330B440B550B6FE182E40E941016209106
:103EA000D901022E000C330B440B550B6FE282E458
:103EB0000E94101682E00E94EF1082E080930D01B4
:103EC00091C288E00E947916882309F48BC210926F
:103ED000E5010E94AE141092E0011092E1011092EF
:103EE000E2011092E30112E01093DF011092CE0183
:103EF0001092CF011093040180E00E94EF10109304
:103F00000D0170C280E40E947916811190C28091E7
:103F10001C0690911D0683709927892B21F40E941D
:103F2000B61086FD84C280E20E947916811183C298
:103F300080911C0690911D0683709927892B21F48E
:103F40000E94B61085FD77C288E00E94791688230A
:103F500031F081E08093CD0183E08093CC0184E057
:103F60000E947916882319F085E08093E50180E0AE
:103F70000E9404160E94CB1180913A01811134C134
:103F80008091CD0181111CC08091020190910101AD
:103F900069E0690F67FF02C060E1690F659565958B
:103FA0006595683024F081E08093CD0109C087FDDC
:103FB000895F8595859585950E943F11882399F3A2
:103FC0009091390180913801082F082E000C110BB7
:103FD000492F092E000C550B23E030E0201B310B3C
:103FE0004217530714F018162CF02091CD0122230C
:103FF00009F4E8C010923901909137019111DFC0A6
:10400000909136019F5F90933601D090CD01209121
:104010000001DD2061F0213021F49730B4F095E00B
:1040200012C0223091F49E3084F09CE00CC021300C
:1040300029F4943054F01092360107C0223029F44C
:104040009B301CF097E090933601E0900201F090D5
:104050000301213059F5FE2DF81B8F2FAE014F5F64
:104060005F4F609101010E151F0564F40E9452110B
:10407000811102C0C7010CC0898128E08202C00101
:10408000112412C00E945211811109C088E790E0EA
:10409000801B910B909303018093020138C08981AA
:1040A00038E08302C001112409962BC028E730E0D4
:1040B000201B310BAE014F5F5F4F60910101E21693
:1040C000F3067CF48E0D0E945211811104C0C701C9
:1040D000800F911FDFCF898148E08402C001112445
:1040E0000FC080E00E945211811105C0109203019F
:1040F000109202010CC0898158E08502C001112490
:104100000997909303018093020110923801DD20FA
:1041100009F44DC08091CC011091010181111BC0A7
:104120001833FCF4AE014F5F5F4F69E0610F80917F
:1041300002010E948611811104C01F5F10930101CA
:1041400036C08981880F880F880F895080930101BC
:104150001092CD012CC018333CF0809101018933BD
:1041600034F10E94811223C0212F012E000C330B49
:10417000281B310987FD33951216130674F7181B97
:10418000AE014F5F5F4F612F809102010E94861147
:10419000811103C010930101E0CF8981880F880F3E
:1041A000880F875F809301011092CC01D6CF809158
:1041B000CC01181654F481508093CC0106C01092A3
:1041C000370103C09F5F9093390160910101062E72
:1041D000000C770B2091360141EF52E080910201F3
:1041E000909103010E9472106D961FAE6D97A12CE5
:1041F00089E0B82E80913B016D962FAD6D97281701
:104200000CF0ADC06D968FAD6D97E82E880FFF084E
:10421000BE9CC001BF9C900D1124FC01E45CFE4FCC
:104220006F018481882309F492C04181433348F5AA
:104230006091020182809380092D10E0209101019C
:10424000022E000C330BC8010896821793070CF45A
:1042500017C2C9010896801791070CF411C2282CC7
:10426000312C062E000C770BC10108968617970794
:104270000CF406C2CB010896821593050CF0DFC042
:10428000FFC180913A01811149C080910201928160
:10429000438150E020910101022E000C330BBA0142
:1042A000685F7F4F6217730784F1285F3F4F2417C1
:1042B00035075CF1292F30E0082E000C990BA9017D
:1042C000485F5F4F4817590704F108968217930714
:1042D000E4F0F601DE0154968B2D01900D928A9543
:1042E000E1F7188EFE017496DE011B968B2D01906E
:1042F0000D928A95E1F71F86FE013B96D6018B2D24
:1043000001900D928A95E1F722C0BE9CC001BF9C2E
:10431000900D11249C01245C3E4F6901F601E08060
:10432000F180028113812481358146815781608526
:10433000CE018D5A9F4F0E942114FE01ED5AFF4F6E
:10434000D6018B2D01900D928A95E1F7A3946D967D
:10435000FFAD6D97FF5F6D96FFAF6D974BCFA110CF
:1043600007C08091E50188301CF489E08093E50165
:104370004AE0BE016F5F7F4F8091E0019091E101C3
:104380000E9481247C0119E2F70121917F012223FF
:1043900041F04CE3612F85E893E00E94F4121C5F2A
:1043A000F3CF10E08091DF011817E4F4612F660F5E
:1043B000660F605B2BE24CE385E893E00E94F41209
:1043C0001F5FF0CF84E00E947916882359F007C060
:1043D00088E00E947916882329F00E94F71184E072
:1043E0008093E5010E94F21580E090E0892B09F4AA
:1043F0001ECA0E9400001BCA2115310581F0FA0176
:10440000E60FF71FEE53FF4FE491F0E0062C02C0D9
:10441000F595E7950A94E2F7DC90ED29EC934F5F70
:104420005F4F11964835510509F0A5C997C982E03B
:104430000E94C81278CD81E00E94C81285CD80917B
:104440003A018111BCC0493008F0AAC0F60183814D
:1044500090E0281739070CF0A3C0BE9CF001BF9C68
:10446000F00D1124E45CFE4FDE01A65BBF4F8B2DE7
:1044700001900D928A95E1F7F6011581411154C022
:1044800080910001813019F08230C1F061C08091CB
:10449000CC01082E000C990B0C968617970714F484
:1044A000681B01C068E700E022E0492D84E00E941B
:1044B0002711F4E61F9FC00111241BC08091CC017D
:1044C000082E000C990B9B01245F3F4F280F391FCA
:1044D000213531051CF40C96680F01C060E000E046
:1044E00024E0492D84E00E94271124E6129FC00198
:1044F0001124092E000CAA0BBB0B4091E001509136
:10450000E1016091E2017091E301840F951FA61F04
:10451000B71F8093E0019093E101A093E201B09373
:10452000E3010E94841614C08091E0019091E101A2
:10453000A091E201B091E3018C599F4FAF4FBF4F63
:104540008093E0019093E101A093E201B093E30135
:104550002E969FAE2E972F961FAE2F9760961FAF69
:104560006097FE01E65BFF4FDE01AF5BBF4F8B2D17
:1045700001900D928A95E1F725969FAE2597269694
:104580001FAE269727961FAF2797BE9CD001BF9CD2
:10459000B00D1124A45CBE4FFE01EF5BFF4FAFCE08
:1045A0001091DF0111163CF40E948112A394115066
:1045B0001093DF01CCCE88E08093E501C8CEF601F0
:1045C000493020F4E080F18084016AC0DE01D89691
:1045D0008B2D01900D928A95E1F7F6018481F5818A
:1045E0006E96FFAF6E97F6013681D084882321F155
:1045F0008A3069F46E96FFAD6E97DF1206C03F5F9A
:10460000D12C343058F030E009C0D39407C00E9458
:104610007324A30192010E94CC24362F232F43E65A
:1046200053E0B801C1016F963FAF6F970E947210BF
:104630008AE06F963FAD6F978AAE9BAE8CAF6E9659
:104640002FAD6E972DAF3EAF2196DFAE2197FE01C5
:10465000F896DE019F969B2D01900D929A95E1F7B9
:1046600089AA9AAA8BAB2CAB3DABDFAABE9CD0012A
:10467000BF9CB00D1124A45CBE4FFE01BF963FCE7F
:104680004930C8F4BE9CC001BF9C900D1124AC0100
:10469000445C5E4F6A01FA01E080F180028113817F
:1046A00024813581468157816085CE018D5A9F4F87
:1046B0000E94631342CEBE9CF001BF9CF00D1124FA
:1046C000E45CFE4FDE0196968B2D01900D928A954B
:1046D000E1F7F601848135802680D0848823E9F0D3
:1046E0008A3059F4D31007C02394F3E0D12CF2158B
:1046F00058F4212C09C0D39407C00E947324A3014D
:1047000092010E94CC24262E222D43E653E0B801CC
:10471000882D90E00E9472108AE088A699A68AA748
:104720003BA62CA6DEA6FE01B696DE015D969B2D6D
:1047300001900D929A95E1F78F8E98A289A33AA2E3
:104740002BA2DDA2BE9CD001BF9CB00D1124A45CA5
:10475000BE4FFE017D96D3CDE8E3F6E013821282D0
:1047600088EE93E0A0E0B0E084839583A683B783CE
:104770008AE191E0918380832FEF3FEF3587248793
:1047800084ED9CE0909315068093140680E090E8F9
:10479000909313068093120646983E9A47983F9A44
:1047A0008091170680931606E9E1F6E04CE251E0AD
:1047B000518340831582168290E19783348323834B
:1047C0001486158616861786108A80931806089513
:1047D000CF92DF92EF92FF920F931F93CF93DF93CD
:1047E0001F92CDB7DEB7182F062FE42E862F880F25
:1047F0008E5F99830E94311783E00E943117F12E5A
:10480000C12E9981D92E8C2D8F19801798F4F6011D
:10481000E7FE02C0849101C080810E943117182FE9
:1048200080E00E9431178123FFEFCF1ADF0A811148
:10483000EACF01C081E00F90DF91CF911F910F91DE
:10484000FF90EF90DF90CF9008958F929F92AF925C
:10485000BF92CF92DF92EF92FF92CF93DF93EC0162
:10486000688179818A819B81611571058105910536
:1048700021F464E279ED8BE597E02DE133EF41E03F
:1048800050E00E94CC2449015A019B01AC01A7EAE7
:10489000B1E40E94EB246B017C01ACEEB4EFA50106
:1048A00094010E94F924DC01CB018C0D9D1DAE1DED
:1048B000BF1DB7FF03C00197A109B0488883998342
:1048C000AA83BB83BC01CD019F77DF91CF91FF907D
:1048D000EF90DF90CF90BF90AF909F908F90089512
:1048E0000E942524089582E191E00E9425240895E4
:1048F000609312017093130180931401909315013A
:104900000895BB274A3031F4992322F4BDE29095F3
:1049100081959F4F0C948D24BB27FB015527AA2717
:10492000880F991FAA1FA41710F0A41B839550513C
:10493000B9F7A05DAA3308F0A95DA193009779F7B4
:10494000B111B1931192CB010C94A624DC01FC01AE
:10495000672F71917723E1F7329704C07C916D93B3
:1049600070836291AE17BF07C8F30895F999FECF1F
:1049700092BD81BDF89A992780B50895262FF9999F
:10498000FECF1FBA92BD81BD20BD0FB6F894FA9A32
:10499000F99A0FBE01960895052E97FB1EF4009418
:1049A0000E94E32457FD07D00E94FE2407FC03D099
:1049B0004EF40C94E32450954095309521953F4F4B
:1049C0004F4F5F4F089590958095709561957F4FFB
:1049D0008F4F9F4F08950E942025A59F900DB49F53
:1049E000900DA49F800D911D11240895B7FF0C9484
:1049F000EB240E94EB24821B930B0895A1E21A2E54
:104A0000AA1BBB1BFD010DC0AA1FBB1FEE1FFF1F72
:104A1000A217B307E407F50720F0A21BB30BE40BC2
:104A2000F50B661F771F881F991F1A9469F7609509
:104A30007095809590959B01AC01BD01CF010895C3
:104A4000A29FB001B39FC001A39F700D811D1124CF
:104A5000911DB29F700D811D1124911D089587FB3A
:104A6000082E062687FD819567FD61950E945725D2
:104A70000EF4919507FC8195089597FB072E16F487
:104A8000009407D077FD09D00E94632507FC05D06C
:104A90003EF4909581959F4F0895709561957F4F55
:104AA0000895EE0FFF1F0590F491E02D0994991BD6
:104AB00079E004C0991F961708F0961B881F7A9515
:104AC000C9F780950895AA1BBB1B51E107C0AA1F17
:104AD000BB1FA617B70710F0A61BB70B881F991F9F
:104AE0005A95A9F780959095BC01CD01089581E074
:0C4AF00090E0F8940C947C25F894FFCF23
:104AFC00012740000200E100000000000004FFFF5D
:104B0C00FFFF0100000000000000EC146D150D15F6
:104B1C000215531511152F1500000000D70C00C1FC
:064B2C0080810000000082
:00000001FF
