:1000000093C00000B5C00000B3C00000B1C0000044
:10001000AFC00000ADC00000ABC00000A9C0000030
:10002000A7C00000A5C00000C1C4000088C5000032
:100030009FC000009DC000009BC0000099C0000050
:1000400097C0000095C0000093C0000091C0000060
:100050008FC000008DC000008BC0000089C0000070
:1000600087C0000085C0000083C0000081C0000080
:100070007FC000007DC000007BC0000079C0000090
:1000800077C0000075C0000073C0000071C00000A0
:100090006FC000006DC000006BC0000069C00000B0
:1000A00067C0000065C0000063C0000012011001BD
:1000B00002000008EB03442000000102DC010902F9
:1000C0003E00020100C032090400000102020100EA
:1000D000052400100104240206052406000107057A
:1000E00082030800FF09040100020A00000007055E
:1000F000040210000507058302100005040309042B
:100100000E0374006D007000760061007200000044
:100110001603740070006100640034002D006D004F
:1001200065006700610000008091BF018B3B21F4F6
:1001300090E09093BF01089511241FBECFEFDAE045
:10014000DEBFCDBF11E0A0E0B1E0E0E4FAE102C023
:1001500005900D92A038B107D9F711E0A0E8B1E001
:1001600001C01D92A53DB107E1F714D20C941E0DFC
:1001700047CF883090F490B321E030E002C0220FE6
:10018000331F8A95E2F7822F8095892380BB809167
:100190007E00822B80937E000895883039F4549835
:1001A00080917D00816080937D000895282F30E04C
:1001B0008B3088F46AB1A9014350504081E090E04F
:1001C000FC0102C0EE0FFF1F4A95E2F7AF01409518
:1001D00046234AB910C064B1A9014750504081E09C
:1001E00090E0FC0102C0EE0FFF1F4A95E2F7AF015D
:1001F0004095462344B940917D002850304002C0CC
:10020000880F991F2A95E2F7482B40937D000895A7
:10021000CF93DF93C7E7D1E089919991FC01EE0F6D
:10022000FF1FE80FF91FEE0FFF1FED57FE4F628112
:100230007381448155818081918103D23BD281E0D9
:10024000CF37D80749F759D2DF91CF9108950F934F
:100250001F93CF93DF93813279F48BEB8093BF01AF
:100260002CE088E190E00FB6F894A89580936000A8
:100270000FBE20936000FFCF8C3211F08A30F9F46A
:10028000C0919B01D0919C010DEA11E0C8010E9430
:10029000070AFE01EE0FFF1FE054FE4F918380839B
:1002A00088E0D8011D928A95E9F71092B601109264
:1002B000B5012196D0939C01C0939B0120C0209151
:1002C000B5013091B601F901E355FE4F8083C901B4
:1002D00001969093B6018093B501883091057CF02A
:1002E0001092B6011092B50188E0EDEAF1E0DF016D
:1002F0001D928A95E9F710929C0110929B018091C2
:100300009B0190919C018430910574F110929C01A5
:1003100010929B011092B6011092B5018091C0011C
:100320009091C101FC01EE0FFF1FE80FF91FEE0FC6
:10033000FF1FED57FE4F8091C2019091C301918341
:1003400080838091C4019091C501938382838091C1
:10035000C6019091C7019583848388E0E0ECF1E0C9
:10036000DF011D928A95E9F7DF91CF911F910F91DF
:10037000089584B7877F84BF88E10FB6F89480938F
:100380006000109260000FBE90E080E80FB6F89415
:1003900080936100909361000FBEF0D214B8B0D189
:1003A00085EA80937A0080E0E4DE81E0E2DE84E0AA
:1003B000E0DE85E0DEDE8FEF85B90895EF92FF92F3
:1003C0000F931F93DF93CF93CDB7DEB7C054D040C8
:1003D0000FB6F894DEBF0FBECDBF80918201882397
:1003E00009F5E0918001F0918101EE0FFF1FE159C5
:1003F000FE4F80819181806680937C0090FF04C0D5
:1004000080917B00806203C080917B008F7D809310
:100410007B0080917A00806480937A0081E08093F1
:100420008201AAC080917A0084FFA6C080917A00E0
:10043000806180937A0000917800109179000639EC
:10044000110510F400E010E080918001909181018D
:10045000FC01EE0FFF1FDF01A954BE4F2D913C910F
:1004600011972017310709F475C020919D012223AF
:10047000F1F523E0083E120748F4E80FF91FEE0FEC
:10048000FF1FED57FE4F118210820EC03FE1003476
:10049000130778F4E80FF91FEE0FFF1FED57FE4F1B
:1004A0008FEF93E0918380831382128215821482EE
:1004B00047C0E80FF91F82E3083C180758F4EE0F15
:1004C000FF1FED57FE4F118210828FEF93E0938351
:1004D0008283ECCFEE0FFF1FED57FE4F118210828B
:1004E000138212828FEF93E09583848329C0ADB786
:1004F000BEB718970FB6F894BEBF0FBEADBFEDB72D
:10050000FEB731967E010894E11CF11C1296FC9214
:10051000EE92119720E031E0338322839583848328
:1005200017830683BCD72DB73EB7285F3F4F0FB662
:10053000F8943EBF0FBE2DBFC7016EE971E08CD7A6
:10054000E0918001F0918101EE0FFF1FE954FE4F11
:100550001183008380918001909181010196909395
:100560008101809380018430910524F010928101F3
:100570001092800110928201C05CDF4F0FB6F89498
:10058000DEBF0FBECDBFCF91DF911F910F91FF90C6
:10059000EF9008951F93CF93DF93EBDE84E591E016
:1005A0006EE971E020D7789411E008DF31DE909198
:1005B0009D018091AC01992379F0882319F510935E
:1005C000AC0187E091E06EE971E046D78DE091E003
:1005D0006EE971E041D722C08823A1F0E3E8F1E0A1
:1005E000118210821382128215821482369681E063
:1005F000EB39F807A9F71092AC0110929C01109208
:100600009B010CC084E591E072D6EC01209731F09B
:1006100084E591E0A1D61BDE2197F8CF84E591E037
:1006200056D6F6D4C2CF84E591E0BBC584E591E00F
:100630000BC5FC01808991898170907080939D0128
:100640000895242F352F44E02030340710F02FEF89
:1006500033E0F22FE32FE370262F372F44E02030D2
:10066000340710F02FEF33E0722F770F770F7E2BC8
:10067000422F4295469546954370232F2370220FB3
:10068000220F422B282F392F84E02030380710F01A
:100690002FEF33E0522F5295507F842F8F70422FCF
:1006A00042954F70932F93709295907F6F2F852B6B
:1006B000942B08959B01AC016FE170E0E1E0DA0159
:1006C000C901062E04C0B695A795979587950A94FB
:1006D000D2F781709070009711F05B9A01C05B981F
:1006E0008BB18E278BB98BB18E278BB9615070403F
:1006F0008FEF6F3F780719F708955A9A5A9808951F
:10070000539A529A519A509A59980895923029F0D2
:10071000933041F09130F9F419C02EE330E0EEEB64
:10072000F0E01DC0813049F0813018F0823099F43A
:1007300008C0ECEFF0E0249107C0E0E0F1E0249184
:1007400003C0E0E1F1E0249130E009C022E130E0B3
:10075000ECEAF0E004C020E030E0E0E0F0E0DA01B4
:100760001196FC93EE93C9010895982F2CC0292F60
:100770002F702093E900981739F07091EC002091C8
:10078000ED005091F00003C0242F762F50E021FFA0
:1007900019C03091EB003E7F3093EB003091ED00BB
:1007A0003D7F3093ED003091EB0031603093EB00F2
:1007B0007093EC002093ED005093F0002091EE0038
:1007C00027FF08C09F5F973090F28F708093E900F9
:1007D00081E0089580E008950F931F93CF93DF93F6
:1007E000162FC82FD92F00E02AC09881992329F10C
:1007F0006B81E981FA812C81892F8F70873018F500
:100800006295660F660F607C991F9927991F692B67
:10081000223010F096E001C092E028E030E040E0A5
:1008200003C04F5F220F331F2E173F07D0F34295AF
:10083000407F492B9ADF882331F00F5F25960117FF
:10084000A0F281E001C080E0DF91CF911F910F9174
:1008500008958091CD0187FF13C004C08091CC0121
:100860008823B9F08091E80082FFF8CF8091E800FA
:100870008B778093E80008958091CC01882349F01C
:100880008091E80080FFF8CF8091E8008E77809318
:10089000E80008958091E4009091E50044E62091FD
:1008A000EC0020FF26C02091E80020FD16C020911A
:1008B000CC012223A1F02530A1F02091EB0025FDF1
:1008C00012C02091E4003091E5002817390739F370
:1008D000442359F04150C901E2CF80E0089582E0FD
:1008E000089583E0089581E0089584E0089580E00C
:1008F00008952091E80022FFDACFF9CF0F931F93DC
:10090000CF93DF9346D04DD0C8EDD0E088818F776C
:10091000888388818068888388818F7D888319BCDB
:100920001092CC011092C8011092CA011092C90114
:1009300000EE10E0F80180818B7F808388818160E8
:10094000888380E060E042E010DFE1EEF0E080814B
:100950008E7F8083E2EEF0E0808181608083808101
:1009600088608083F80180818E7F808388818061A8
:100970008883DF91CF911F910F910895E7EDF0E00B
:1009800080818160808384E082BF81E08093CB019D
:10099000B5CFE8EDF0E080818E7F80831092E20099
:1009A00008951092DA001092E10008951F920F92BC
:1009B0000FB60F9211242F933F934F935F936F9332
:1009C0007F938F939F93AF93BF93EF93FF93809108
:1009D000E10082FF0AC08091E20082FF06C08091A0
:1009E000E1008B7F8093E10012D38091DA0080FFD9
:1009F0001DC08091D80080FF19C08091DA008E7FE1
:100A00008093DA008091D90080FF0CC080E189BD1D
:100A100082E189BD09B400FEFDCF81E08093CC0165
:100A2000F6D204C019BC1092CC01F1D28091E10041
:100A300080FF18C08091E20080FF14C08091E20026
:100A40008E7F8093E2008091E20080618093E200DB
:100A50008091D80080628093D80019BC85E0809393
:100A6000CC01D5D28091E10084FF2DC08091E200BD
:100A700084FF29C080E189BD82E189BD09B400FEFF
:100A8000FDCF8091D8008F7D8093D8008091E100C8
:100A90008F7E8093E1008091E2008F7E8093E20060
:100AA0008091E20081608093E2008091C8018823F8
:100AB00021F48091E30087FF02C084E001C081E05F
:100AC0008093CC01A4D28091E10083FF27C0809164
:100AD000E20083FF23C08091E100877F8093E100E3
:100AE00082E08093CC011092C8018091E1008E7F5A
:100AF0008093E1008091E2008E7F8093E2008091FC
:100B0000E20080618093E20080E060E042E02DDE60
:100B10008091F00088608093F00079D2FF91EF918E
:100B2000BF91AF919F918F917F916F915F914F9105
:100B30003F912F910F900FBE0F901F9018951F920D
:100B40000F920FB60F9211242F933F934F935F9301
:100B50006F937F938F939F93AF93BF93CF93EF93B5
:100B6000FF93C091E900CF708091EC001092E900F2
:100B70008091F000877F8093F0007894E2D010920B
:100B8000E9008091F00088608093F000C093E90054
:100B9000FF91EF91CF91BF91AF919F918F917F91F5
:100BA0006F915F914F913F912F910F900FBE0F90DA
:100BB0001F901895482F592FFA018091D3019091D9
:100BC000D4018617970718F4BC0140E03CC06115BA
:100BD0007105D9F78091E8008E778093E800F5CF12
:100BE0008091CC01882309F444C08530F1F18091D3
:100BF000E80083FD3CC08091E80082FD30C0809118
:100C0000E80080FF20C09091F3008091F200392F1E
:100C100020E090E0822B932B06C041914093F1009D
:100C20006150704001966115710519F08830910589
:100C3000A0F341E08830910509F040E08091E800A0
:100C40008E778093E8006115710551F6442341F6D3
:100C500006C08091CC01882361F0853061F08091DD
:100C6000E80082FFF6CF80E0089583E0089581E0F8
:100C7000089582E0089583E00895E82FF92F809188
:100C8000D3019091D4018617970718F4BC0140E076
:100C90003EC061157105D9F78091E8008E77809389
:100CA000E800F5CF8091CC01882309F446C0853057
:100CB00009F43FC08091E80083FD3DC08091E800C9
:100CC00082FD31C08091E80080FF21C09091F30047
:100CD0008091F200392F20E090E0822B932B07C007
:100CE00044914093F1003196615070400196611536
:100CF000710519F08830910598F341E0883091052D
:100D000009F040E08091E8008E778093E80061155B
:100D1000710541F6442331F606C08091CC01882349
:100D200061F0853061F08091E80082FFF6CF80E0CD
:100D3000089583E0089581E0089582E0089583E0B6
:100D400008950F931F93DF93CF93CDB7DEB7AC9782
:100D50000FB6F894DEBF0FBECDBFEDECF1E0809191
:100D6000F100819321E0E53DF207C9F75FDC809156
:100D7000E80083FF33C18091CD012091CE01253061
:100D800009F484C0263040F42130A1F1213070F004
:100D9000233009F023C12EC0283009F4F1C02930D6
:100DA00009F400C1263009F019C194C0803821F03F
:100DB000823809F013C108C08091C9019091CA011D
:100DC000992371F082600CC08091D1018F70809363
:100DD000E9009091EB0081E095FF80E01092E9003E
:100DE0009091E800977F9093E8008093F100109233
:100DF000F100D1C0882319F0823009F0EFC090E0F3
:100E00008F719070009729F08230910509F0E6C04B
:100E10000BC08091CF01813009F0E0C0233009F090
:100E200080E08093CA012CC08091CF01882341F5D6
:100E30002091D1012F7009F4D1C02093E900809155
:100E4000EB0080FF1DC08091CE01833021F48091A2
:100E5000EB00806213C08091EB0080618093EB0017
:100E600081E090E002C0880F991F2A95E2F78093F5
:100E7000EA001092EA008091EB0088608093EB001A
:100E80001092E9008091E800877F88C0882309F0EC
:100E9000A5C01091CF011F770FB7F8948091E8009B
:100EA000877F8093E800D5DC8091E80080FFFCCF4D
:100EB0008091E3008078812B8093E30080688093A9
:100EC000E300112311F083E001C082E08093CC01A4
:100ED0000FBF84C08058823008F080C08091CF015D
:100EE0009091D00123E08C3D920791F583E08C83B3
:100EF0008AE28B835FB7F894DE01159680E090E07C
:100F00004EE061E2E42FF0E060935700E49180FF4F
:100F100003C0E295EF704F5FEF702E2F30E0EA30A4
:100F200018F0295C3F4F02C0205D3F4F2D933D9349
:100F300001968431910531F75FBF8091E800877F8A
:100F40008093E800CE0103966AE270E033DE12C0BF
:100F50006091D101AE014F5F5F4FD8DBBC010097BC
:100F600009F43CC08091E800877F8093E800898184
:100F70009A8183DE8091E8008B778093E8002EC011
:100F8000803861F58091E800877F8093E800809148
:100F9000C8018093F1008091E8008E778093E8008B
:100FA00058DC1CC08823D1F49091CF019230B0F46A
:100FB0008091E800877F8093E8009093C80149DC26
:100FC0008091C801882321F48091E30087FF02C04B
:100FD00084E001C081E08093CC0125DB8091E800B2
:100FE00083FF0AC08091EB0080628093EB008091C8
:100FF000E800877F8093E800AC960FB6F894DEBFD8
:101000000FBECDBFCF91DF911F910F91089508952D
:10101000CF938091CC018823A9F08091E9008F7053
:101020009091EC0090FF02C0C0E801C0C0E0C82B66
:101030001092E9008091E80083FF01C082DECF704A
:10104000C093E900CF910895CF93DF93EC01809195
:10105000E80083FFA3C0888190E02091D101309106
:10106000D2012817390709F099C08091CE01813249
:1010700069F0823220F4803209F090C03CC08232A4
:1010800009F46BC0833209F089C07AC08091CD0128
:10109000813A09F083C08091E800877F8093E8005F
:1010A0008091E80080FFFCCF2C893D894E895F89C3
:1010B0002093F100BB27A52F942F832F8093F1005D
:1010C000CA01AA27BB278093F100252F3327442785
:1010D00055272093F100888D8093F100898D8093AE
:1010E000F1008A8D8093F1008091E8008E778093E3
:1010F000E800AFDB53C08091CD01813209F04EC0D2
:101100008091E800877F8093E80005C08091CC0142
:10111000882309F443C08091E80082FFF7CF309123
:10112000F1002091F1009091F1008091F1003C8B51
:101130002D8B9E8B8F8B8091F100888F8091F10099
:10114000898F8091F1008A8F8091E8008B7780935E
:10115000E8007FDBCE015AD121C08091CD018132E0
:10116000E9F48091E800877F8093E80072DB80914A
:10117000CF019091D001998B888BCE015ADA0EC0A5
:101180008091CD01813251F48091E800877F809376
:10119000E8005FDBCE016091CF0138D1DF91CF91C4
:1011A0000895CF93DF93EC014096FC018BE0DF01C3
:1011B0001D928A95E9F782E08C83898783E08E8788
:1011C000CE01019661E008DB882359F0CE01069636
:1011D00061E002DB882329F0CE010B9661E0FCDAA6
:1011E00001C080E0DF91CF910895DF93CF930F92FC
:1011F000CDB7DEB7FC018091CC018430F9F42489AD
:101200003589468957892115310541055105B1F0C8
:1012100081818F708093E9008091E80085FD0AC08C
:101220008091E8008E778093E800698333DB6981E1
:10123000882329F46093F10080E001C082E00F90E0
:10124000CF91DF910895282FFB0184859585622F2A
:10125000CCDF882319F02FEF3FEF02C020E030E011
:10126000C9010895FC018091CC01843051F5248995
:10127000358946895789211531054105510509F1FF
:1012800081818F708093E9009091F3008091F2004A
:10129000392F20E090E0822B932B0097A1F09091C2
:1012A000E8008091E8008E778093E80095FD0DC0FE
:1012B000F1DA882359F49091E8009E779093E80042
:1012C000089582E0089580E0089580E008952091D7
:1012D000CC01243059F4FC01248935894689578989
:1012E000211531054105510509F0BCCF0895FC01D8
:1012F0008091CC01843061F52489358946895789EC
:10130000211531054105510519F186818F708093B2
:10131000E9008091E80082FF1BC09091F30080916A
:10132000F200392F20E090E0822B932B009731F4CC
:101330008091E8008B778093E8000AC03091F30039
:101340002091F200932F80E030E0282B392B02C04F
:1013500020E030E0C9010895FC018091CC01843087
:1013600099F5248935894689578921153105410523
:10137000510551F186818F708093E9008091E800DA
:1013800082FF22C09091F3008091F200392F20E07B
:1013900090E0822B932B009721F02091F10030E018
:1013A00002C02FEF3FEF9091F3008091F200592F90
:1013B00040E090E0842B952B009741F48091E80069
:1013C0008B778093E80002C02FEF3FEFC9010895AB
:1013D000FC0184859585C0DF9C0197FF02C02EEF3C
:1013E0003FEFC9010895FB012EE0DB011D922A9514
:1013F000E9F723E0238323E239E03187208728EED1
:1014000039E0338722879587848708950895FC0102
:1014100088279927E89421912032E9F3293010F0A8
:101420002E30C8F32B3239F02D3231F4689403C0DA
:101430000BD0820F911D219120532A30C8F31EF446
:10144000909581959F4F08957AE0979F902D879F63
:10145000802D910D11240895EF92FF920F931F9309
:10146000CF93DF937C01EB018B8181FF11C000E002
:1014700010E008C0E885F985BE010995009711F0D4
:101480000FEF1FEFF70181917F01882399F702C0C9
:101490000FEF1FEFC801CDB7DEB7E6E0C0C2AEE088
:1014A000B0E0E4E5FAE0A1C20D891E8986E08C83F4
:1014B0001A8309838FEF9FE79E838D839E01275EAA
:1014C0003F4FCE0101966F89788DA90108D0EF8139
:1014D000F885E00FF11F10822E96E4E0A2C2ACE086
:1014E000B0E0E4E7FAE073C26C011B018A01FC0181
:1014F00017821682838181FFC4C12E010894411C8A
:10150000511CF6019381F10193FD859193FF819127
:101510001F01882309F4B1C1853239F493FD859107
:1015200093FF81911F01853221F490E0B601C5D16E
:10153000E8CFEE24FF2420E02032B0F48B3269F0B3
:101540008C3228F4803251F0833271F40BC08D322A
:1015500039F0803349F421602CC02260246029C016
:10156000286027C0206125C027FD2CC0382F3053AC
:101570003A3098F426FF08C08E2D880FE82EEE0C26
:10158000EE0CE80EE30E15C08F2D880FF82EFF0C21
:10159000FF0CF80EF30E20620CC08E3221F426FDF3
:1015A0006CC1206406C08C3611F4206802C08836F5
:1015B00049F4F10193FD859193FF81911F018823E7
:1015C00009F0BACF982F9554933018F09052933079
:1015D00028F40C5F1F4FFFE3F9830DC0833631F011
:1015E000833771F0833509F05CC021C0F801808138
:1015F00089830E5F1F4F420171E0A72EB12C15C0E9
:1016000062E0662E712C600E711EF8018080918060
:1016100026FF03C06E2D70E002C06FEF7FEFC401A4
:101620002C8740D15C0183012C852F7716C052E0B6
:10163000652E712C600E711EF8018080918026FF4E
:1016400003C06E2D70E002C06FEF7FEFC4012C87E6
:101650001ED15C012C852068830123FD1EC007C0BC
:1016600080E290E0B6012C8728D1FA942C858F2D4A
:1016700090E0A816B906A0F310C0F40127FD8591EB
:1016800027FF81914F0190E0B6012C8716D12C8560
:10169000F110FA940894A108B108A114B10469F7F3
:1016A000E9C0843611F0893641F527FF08C0F801FA
:1016B00060817181828193810C5F1F4F09C0F801A5
:1016C00060817181882777FD8095982F0E5F1F4F6D
:1016D0004FE6B42EB22297FF09C090958095709581
:1016E00061957F4F8F4F9F4FF0E8BF2AA2012AE0FC
:1016F00030E00FD1782E741844C0853731F43FEEB6
:10170000B32EB2222AE030E025C099EFB92EB222E2
:101710008F36C1F0803720F4883509F0AEC00DC097
:10172000803721F0883709F0A8C002C020E1B22A32
:10173000B4FE0BC084E0B82A08C0B4FE09C0E6E0DD
:10174000BE2A06C028E030E005C020E130E002C03B
:1017500020E132E0B7FE08C0F8016081718182812A
:1017600093810C5F1F4F07C0F8016081718180E099
:1017700090E00E5F1F4FA201CCD0782E7418FFE7C7
:10178000BF22B6FE0BC02EEFB2227E1438F4B4FE98
:1017900007C0B2FC05C08FEEB82202C0A72C01C062
:1017A000AE2C8B2D90E0B4FE0DC0FE01E70DF11DB7
:1017B0002081203319F4E9EEBE2209C0A394B2FEC1
:1017C00006C004C086789070009709F0A3948B2C13
:1017D0009924B3FC13C0B0FE0EC0AF1428F4E72C5C
:1017E000EF0CEA18AF2C07C0E72C05C080E290E0B0
:1017F000B60163D0A394AF14C8F304C0AF1410F4BF
:10180000FA1801C0FF2484FE0EC080E390E0B60108
:1018100054D082FE1DC081FE03C088E590E010C058
:1018200088E790E00DC0C40186789070009781F041
:1018300081FC02C080E201C08BE2B7FC8DE290E047
:10184000B6013BD005C080E390E0B60136D0EA9403
:101850007E14C8F37A94F201E70DF11D808190E0C7
:10186000B6012BD07720B1F705C080E290E0B60139
:1018700024D0FA94FF20C9F744CEF601268137819F
:1018800002C02FEF3FEFC9012C96E2E1BCC0FC0182
:101890000590615070400110D8F7809590958E0F9B
:1018A0009F1F0895FC016150704001900110D8F70E
:1018B000809590958E0F9F1F08950F931F93CF9340
:1018C000DF938C01EB018B8181FF1BC082FF0DC078
:1018D0002E813F818C819D812817390764F4E8812E
:1018E000F9810193F983E88306C0E885F985802FA3
:1018F0000995009731F48E819F8101969F838E8395
:1019000002C00FEF1FEFC801DF91CF911F910F9120
:101910000895FA01AA27283051F1203181F1E89485
:101920006F936E7F6E5F7F4F8F4F9F4FAF4FB1E0D2
:101930003ED0B4E03CD0670F781F891F9A1FA11DCD
:10194000680F791F8A1F911DA11D6A0F711D811DCE
:10195000911DA11D20D009F468943F912AE0269F93
:1019600011243019305D3193DEF6CF010895462FF2
:101970004770405D4193B3E00FD0C9F7F6CF462FD3
:101980004F70405D4A3318F0495D31FD405241933C
:1019900002D0A9F7EACFB4E0A695979587957795F9
:1019A0006795BA95C9F700976105710508959B0180
:1019B000AC010A2E06945795479537952795BA9509
:1019C000C9F7620F731F841F951FA01D08952F92E2
:1019D0003F924F925F926F927F928F929F92AF92BF
:1019E000BF92CF92DF92EF92FF920F931F93CF930C
:1019F000DF93CDB7DEB7CA1BDB0B0FB6F894DEBFA3
:101A00000FBECDBF09942A88398848885F846E84C8
:101A10007D848C849B84AA84B984C884DF80EE8012
:101A2000FD800C811B81AA81B981CE0FD11D0FB61B
:101A3000F894DEBF0FBECDBFED010895F894FFCF3F
:101A400025642C25750A00747061640A007B226E7F
:101A5000616D65223A202274706164342D6D656772
:101A600061222C20226C656473223A747275652C95
:101A700020227061647322203A20342C2022766563
:101A80007273696F6E22203A2022302E302E33225C
:101A9000207D0A0000831000000104100000018274
:101AA000080000010000000000000000000000002D
:101AB0000001000400050002000300010000000016
:00000001FF
